:020000040800F2
:10000000F8250020750200085F1B00084D1A000843
:100010005D1B0008F70500084D39000800000000CE
:10002000000000000000000000000000E11C0008CB
:100030002107000800000000DF1C0008ED1C00087C
:100040008F0200088F0200088F0200088F0200084C
:100050008F0200088F0200088F0200088F0200083C
:100060008F0200088F0200088F0200088F0200082C
:100070008F0200088F0200088F0200088F0200081C
:100080008F0200088F0200088F02000800000000A5
:100090000000000000000000000000008F020008C7
:1000A0008F0200088F0200088F0200088F020008EC
:1000B0008F0200088F0200088F0200088F020008DC
:1000C0008F0200088F0200088F0200088F020008CC
:1000D0008F0200088F0200088F0200080000000055
:1000E0008F0200088F0200088F0200080000000045
:1000F0000000000000000000000000008F02000867
:10010000000000008F0200088F0200088F02000824
:1001100000000000000000000000000000000000DF
:100120008F0200088F0200088F0200088F0200086B
:100130008F02000800000000000000000000000026
:10014000000000000000000000000000651B000827
:100150008F0200088F0200088F0200088F0200083B
:100160008F0200088F02000800000000000000005D
:10017000000000000000000000000000000000007F
:10018000000000008F0200080000000000000000D6
:100190008F02000800F002F800F05CF80AA090E876
:1001A000000C82448344AAF10107DA4501D100F032
:1001B00051F8AFF2090EBAE80F0013F0010F18BFA3
:1001C000FB1A43F001031847B8910000D8910000D2
:1001D0000A444FF0000C10F8013B13F0070408BF6D
:1001E00010F8014B1D1108BF10F8015B641E05D00B
:1001F00010F8016B641E01F8016BF9D113F0080FC0
:100200001EBF10F8014BAD1C0C1B09D16D1E58BF51
:1002100001F801CBFAD505E014F8016B01F8016B88
:100220006D1EF9D59142D6D37047000000230024FB
:1002300000250026103A28BF78C1FBD8520728BFF6
:1002400030C148BF0B6070471FB508F0C0FE1FBD2E
:1002500010B510BD00F09AF91146FFF7F5FF06F052
:1002600017FD00F0B8F903B4FFF7F2FF03BC00F08C
:10027000BBF900000948804709480047FEE7FEE750
:10028000FEE7FEE7FEE7FEE7FEE7FEE7FEE7FEE746
:1002900004480549054A064B704700008D1D0008BB
:1002A00095010008F81F0020F8250020F821002003
:1002B000F821002053EA020C00F069802DE9F04B90
:1002C0004FF00006002B1FBFB3FA83F503FA05F4C5
:1002D00024FA05F65E4012BF1643B2FA82F502FA1E
:1002E00005F4C5F120051EBF22FA05FC44EA0C0402
:1002F000203556EA044C4FEA144418BF641C4FF0F2
:1003000000084FF00009904271EB030C39D300292B
:1003100019BFB1FA81F701FA07F6B0FA80F700FACF
:1003200007F6C7F120071EBF20FA07FC46EA0C06B5
:100330002037B6FBF4FCA7EB0507103F07F01F0BB7
:10034000CBF120060CFA0BFB2CFA06F644BFB346A1
:100350000026202FA4BF5E464FF0000B5BEA060C80
:1003600008BF4FF0010B19EB0B09ABFB027C48EB0C
:100370000608C01B06FB02CC0BFB03CC71EB0C0187
:10038000C1E70B46024641464846BDE8F08B13B52F
:100390004FF000004FF00001AFF30080BDE81C40BB
:1003A000704710B5431C02E010F8011B71B18107C2
:1003B000FAD14FF0013202C88C1A8C4314EAC211F0
:1003C000F9D0C01A0A0603D0C01E10BDC01A10BD55
:1003D0000A0401D0801E10BD0902FCD0401E10BDD1
:1003E000032A40F2308010F0030C00F0158011F861
:1003F000013BBCF1020F624498BF11F801CB00F839
:10040000013B38BF11F8013BA2F1040298BF00F88C
:1004100001CB38BF00F8013B11F0030300F0258049
:10042000083AC0F0088051F8043B083A51F804CB70
:10043000A0E80810F5E7121D5CBF51F8043B40F836
:10044000043BAFF30080D20724BF11F8013B11F841
:1004500001CB48BF11F8012B24BF00F8013B00F885
:1004600001CB48BF00F8012B704710B5203AC0F00F
:100470000B80B1E81850203AA0E81850B1E81850A5
:10048000A0E81850BFF4F5AF5FEA027C24BFB1E8E2
:100490001850A0E8185044BF18C918C0BDE8104053
:1004A0005FEA827C24BF51F8043B40F8043B08BF5C
:1004B0007047D20728BF31F8023B48BF11F8012B23
:1004C00028BF20F8023B48BF00F8012B70474FF0CF
:1004D00000020429C0F0128010F0030C00F01B8011
:1004E000CCF1040CBCF1020F18BF00F8012BA8BF1F
:1004F00020F8022BA1EB0C0100F00DB85FEAC17CE3
:1005000024BF00F8012B00F8012B48BF00F8012B95
:1005100070474FF0000200B51346944696462039C6
:1005200022BFA0E80C50A0E80C50B1F12001BFF4AC
:10053000F7AF090728BFA0E80C5048BF0CC05DF812
:1005400004EB890028BF40F8042B08BF704748BF60
:1005500020F8022B11F0804F18BF00F8012B7047D4
:1005600070477047704710B500F008F8006810BD7C
:1005700010B5044600F002F8046010BD0048704752
:10058000981F002000487047981F00207546FFF70D
:10059000F9FFAE4605006946534620F00700854640
:1005A00018B020B5FFF774FEBDE820404FF00006FC
:1005B0004FF000074FF000084FF0000B21F007014B
:1005C000AC46ACE8C009ACE8C009ACE8C009ACE88E
:1005D000C0098D46704710B50446AFF30080204631
:1005E000BDE81040FFF73FBE01491820ABBEFEE753
:1005F000260002007047FEE7002070470020704789
:1006000010B500220449054801F0A8FD044903483B
:1006100001F097FD002010BD6C140020900B00200D
:100620006C10002070B50C46054601460A4801F0E2
:1006300088FD094801F05EFD40210848FFF747FFAB
:100640002478294622460548FFF7CAFE2146284657
:10065000FFF73DFF002070BD900B0020EC0A00204A
:1006600000207047094A10B5D2F8BC22D2F81422F3
:100670000AB1012010BD0A460146044801F06EFD92
:10068000BDE81040014801F0E3BD0000900B0020E0
:100690002DE9F0479FED1D0ADFED1D0A1F462DEDE8
:1006A000028B904680ED190AC0ED1A0ADFED190A97
:1006B0009FED198BC0ED1B0A80ED1C0A80ED1D0A11
:1006C0008946054680ED1E0A002400BF09EB840020
:1006D00005EB840690ED000A08EB840086ED070A1E
:1006E00090ED000A86ED0D0A57F8240008F0FEFB95
:1006F00053EC182B08F004F907F0EAFD641CF064D1
:10070000062CE3DBBDEC028BBDE8F08700000000A7
:100710000000B4C200003443399D52A246DF913F2D
:10072000704772B6FEE7000070B5044600F004F9A9
:100730000546601C02D004480078044400F0FCF830
:10074000401BA042FAD370BDC00000202DE9F84F35
:10075000DFF8B8A10022012403254FF00F090AF1A8
:10076000040BAAF1040E00BF0B6804FA02F6334032
:10077000B34273D10F7907F00307012F01D0022F85
:1007800016D187684FEA420805FA08FC27EA0C07E9
:10079000D1F80CC00CFA08FC4CEA070CC0F808C0F1
:1007A0004768B7430E79C6F3001696403E4346604D
:1007B0000E79F643B6070DD0C768560005FA06FC59
:1007C00027EA0C07D1F808C00CFA06FC4CEA070C23
:1007D000C0F80CC00E7906F00306022E10D1D60820
:1007E00000EB8608D8F8206057074FEAD76C09FA63
:1007F0000CF7BE430F6907FA0CF73743C8F82070AF
:1008000006684FEA420C05FA0CF7BE430F7907F071
:10081000030707FA0CF7374307604E6816F4403FAA
:100820006DD03B4E376847F480473760366822F01A
:10083000030706F480460096364E07EB060CDCF8FC
:10084000086897073F0F09FA07F826EA0806DFF855
:10085000C880404503D14FF000081EE04FE0DFF8AC
:10086000BC80404502D14FF0010816E0DFF8B080AF
:10087000404502D14FF002080FE0DFF8A880404564
:1008800002D14FF0030808E0DFF89C80404502D118
:100890004FF0040801E04FF0070808FA07F848EAAB
:1008A0000608CCF80888DAF800605746D1F804C08A
:1008B0009E435FEACC2C00D51E433E60DBF800600F
:1008C0005F46D1F804C09E435FEA8C2C00D51E43DE
:1008D0003E60DEF800607746D1F804C09E435FEAD0
:1008E0008C3C00D51E433E60084F083F3E68D1F85F
:1008F00004C09E435FEACC3C00D51E433E60521CC0
:10090000102AFFF431AFBDE8F88F0000083C014029
:100910004438024000300140000002400004024020
:1009200000080240000C0240001002400AB1816140
:1009300070470904FBE70000014880687047000029
:10094000C00000200248816802781144816070472D
:10095000C00000200B4810B5016841F4007101602F
:10096000016841F480610160016841F480710160B7
:10097000032000F06FF80F2000F006F800F024F8D4
:10098000002010BD003C024070B50D4D04464FF4F0
:100990007A712878B1FBF0F00A490968B1FBF0F0F0
:1009A00001F040F848B9102C07D200222146501E11
:1009B00000F030F800206C6070BD012070BD0000B8
:1009C000C0000020CC0000200A4808B5016841F4AE
:1009D00080410160006800F4804000900548001FDD
:1009E000016841F080510160006800F08050009083
:1009F00008BD000044380240002809DB00F01F0257
:100A0000012191404009800000F1E020C0F8001170
:100A100070470000F0B40E4B1B680C46C3F3022372
:100A2000C3F10705042D00D90425191D072901D29A
:100A3000002300E0DB1E012606FA05F1491E2140D5
:100A400099409E40761E16403143F0BC02F097BF9D
:100A50000CED00E0064900F0070208684FF6FF03BE
:100A6000184040EA0220034A104308607047000023
:100A70000CED00E00000FA057047006841620020BC
:100A80007047F0B50368586A39B19C6A4FF48276B2
:100A900000EB144400204D1E0AE040EA0240986238
:100AA0000FE006EB8007DF59401C04EB1744C0B28F
:100AB000A842F6D344EA02404FF4807202EB81016F
:100AC00058500020F0BDD0F8080501F041BE01EB00
:100AD000C10200EB8202D0F80805D26C01F096BD8D
:100AE00001EBC10200EB8202D0F80805D2F88C229B
:100AF00001F0E7BDD0F8080501F02CBE0A0601F0B0
:100B00000F0101EBC10100EB810101D53C3101E096
:100B100001F51F71006802F061BD70B504460B0657
:100B200001F00F0000EBC00104EB81014FF0010266
:100B30004FF0000503D581F83D203C3103E081F8FA
:100B40007D5201F51F71087094F8BC04012808D08B
:100B500084F8BC24206802F0FBF984F8BC5400201F
:100B600070BD022070BD70B5044601F00F006268D0
:100B7000904201D9012070BD0B0601F00F0101EB7D
:100B8000C10104EB81014FF001024FF0000503D5D4
:100B900081F83D203C3103E081F87D5201F51F7161
:100BA0008D70087094F8BC04012808D084F8BC2427
:100BB000206802F0C9FB84F8BC54002070BD0220FC
:100BC00070BD01F00F0101EBC10100EB8100D0F815
:100BD0009C0270472DE9F04104460F0601F00F001A
:100BE00000EBC00104EB81014FF001064FF000055E
:100BF00003D581F83D603C3103E081F87D5201F579
:100C00001F710870CA600B714A7802B10881022B0B
:100C100000D14D7194F8BC04012809D084F8BC645B
:100C2000206802F0EDF8284684F8BC54BDE8F08155
:100C30000220FBE770B50C4601F00F0505EBC5017E
:100C400000EB8101C1F89432C1F88C220023C1F875
:100C50009C3281F87D3281F87C52036901F51F7165
:100C6000012B00D14A612207027C006803D002F008
:100C7000C3FB002070BD02F0ADFAFAE770B5044680
:100C80000D4601F00F006168884201D9012070BD56
:100C900029064FF000064FF0010207D500EBC00116
:100CA00004EB810181F83D203C3107E005EBC501F3
:100CB00004EB810181F87D6201F51F718A70087073
:100CC00094F8BC04012807D084F8BC24206802F002
:100CD00067FB280702D007E0022070BD217C04F2E8
:100CE000C442206802F004FB84F8BC64002070BD9C
:100CF00070B50C4601F00F0505EBC50100EB810155
:100D00004B65CA640023CB65012381F83D3001F8AF
:100D10003C5F0369012B00D14A612207027C006815
:100D200003D002F069FB002070BD02F053FAFAE72D
:100D30002DE9FC5F05680446284602F0F0FC002817
:100D40007DD1206802F017FD002878D0D5F808087A
:100D5000C0F30D20C4F8FC04206802F00CFD8007ED
:100D600004D52068416901F002014161206802F068
:100D700002FDC10604F2C440009034D520688169A8
:100D800021F0100181612F6A07F00F0000EBC00015
:100D900004EB8006C7F3434006F51F76022802D015
:100DA000062811D01AE047F6F070074216D0C7F3B4
:100DB0000A1217462846316902F0E1FC30693844CE
:100DC0003061306A384408E008222846009902F071
:100DD000D6FC306AC7F30A11084430622068816982
:100DE00041F010018161206802F0C5FC00034FF062
:100DF000080B4FF0000A4FF001097CD5002620684F
:100E000002F098FC074674E0F80770D0F1B2206851
:100E100002F0A9FC8046C00707D005EB4611C1F8D7
:100E2000089B3146204600F0A3FE5FEA087024D5F7
:100E300005EB4611C1F808BB2068016C00E025E213
:100E400000EB46100191D0F8082BFC4B994205D9D4
:100E5000110403D54FF40041C0F8081B204600F0F0
:100E600002FBF6490198884207D92069012804D17C
:100E700020680121009A02F03BFA5FEAC86004D5BD
:100E800005EB46111020C1F8080B5FEA88701DD5EC
:100E90006869000605D5D5F8040840F48061C5F8F6
:100EA000041806EBC60004EB800090F87F1200F5F2
:100EB0001F70012905D180F803A0F1B2204600F08F
:100EC000EBF905EB46110220C1F8080B5FEA8860D8
:100ED00004D505EB46102021C0F8081B5FEA8840C6
:100EE00005D505EB46104FF40051C0F8081B7F08EC
:100EF000761C002F88D1206802F03DFC40036FD59E
:100F0000206802F010FC0746002667E0F80763D06F
:100F1000F1B2206802F015FC8046C00723D006F02D
:100F20000F0209FA02F0D5F834288243C5F83428B4
:100F300005EB4610C0F80899206901280FD106EB8F
:100F4000C60004EB8000D0E912211144C16436B917
:100F5000606D20B920680121009A02F0C9F9F1B250
:100F60002046FFF7B4FD5FEA087003D505EB461194
:100F7000C1F808B95FEAC86004D505EB4611102036
:100F8000C1F808095FEA486004D505EB4610402126
:100F9000C0F808195FEA887017D53146284602F074
:100FA00091FB06EBC60004EB800090F83F103C304C
:100FB000012905D180F803A0F1B2204600F068F9BC
:100FC00005EB46110220C1F808095FEA086003D565
:100FD0003146204600F032FE7F08761C002F95D166
:100FE000206802F0C8FB002811DAD5F8040820F0C8
:100FF0000101C5F8041894F8F40401282BD0204608
:1010000000F015FA2068416901F000414161206853
:1010100002F0B1FB00050BD5D5F80808C00702D0D7
:10102000204600F049FA2068416901F400614161FD
:10103000206802F0A0FBC00466D5D5F8040820F0B3
:101040000100C5F804081021206802F03BFB0021D4
:101050004FF67F321FE084F8F4A400212046FFF70A
:101060000BFDCFE705EB4110C0F80829D0F8003997
:1010700023F40013C0F80039C0F8082BD0F8003B67
:1010800023F40013C0F8003BD0F8003B43F00063AA
:10109000C0F8003B491C60688842E3D8D5F81C08BA
:1010A00040F00111C5F81C18206B002828460DD00F
:1010B000D0F8840840F00B01C5F88418D5F844082E
:1010C00040F00B012846C5F844180DE0D0F814088C
:1010D00042F22B010843C5F81408D5F8100840F077
:1010E0000B012846C5F81018D0F8000820F4FE615E
:1010F000C5F80018217C2068009A02F0F9F82068F1
:10110000416901F480514161206802F034FB8004A0
:1011100015D5206801F0B4FE206802F0F3FAE06013
:1011200000F084FA0146227B206802F087FB20460B
:1011300000F06AF92068416901F4005141612068BA
:1011400002F019FB000707D5204600F074F920686B
:10115000416901F008014161206802F00CFB0006C2
:1011600016D5A86920F08000A86101260DE000BF17
:1011700006EBC60004EB800090F87F02012803D143
:10118000F1B22046FFF7BAFC761C6068B042EFD897
:10119000206802F0F0FAC00221D501264F4616E081
:1011A00005EB4610D0F8001906EBC60004EB8000F2
:1011B00090F84020012A09D1002907DA80F83F7011
:1011C000F0B240F080012046FFF798FC761C606882
:1011D000B042E5D82068416901F48011416120687E
:1011E00002F0C9FA800234D501204B4629E000BF45
:1011F00005EB4011D1F8001B00EBC00204EB8206A6
:1012000096F88022012A1BD1002919DA94F8FC24CF
:1012100001F4803102F00102914211D186F87F324F
:10122000A96941F08002AA616969090608D4D5F864
:10123000040840F40070C5F8040805E00A30544F73
:10124000401C61688142D3D82068416901F40011D3
:101250004161206802F08FFA400007D52046FFF771
:1012600032FC2068416901F080414161206802F050
:1012700082FA40070AD520684568680702D52046EB
:10128000FFF738FC2068416829434160BDE8FC9FB6
:10129000D0F8080501F0B2BAD0F8080501F0C2BADA
:1012A0002DE9F0418AB0040005D094F8BD04266809
:1012B000002520B108E001200AB0BDE8F08184F8E3
:1012C000BC54204600F05EF8032084F8BD04F06BA7
:1012D000C00500D42561206801F076FF04F11001FB
:1012E000282288466846FFF7C0F894E80F0001F00E
:1012F000D5FD0226C8BB0021206802F05FFA00205D
:1013000001270EE000EBC00104EB810181F83D7084
:1013100001F83C0F08810D71CD600D61401CC0B219
:101320008D6161688142EDD8002011E000EBC001C1
:1013300004EB810181F87D5281F87C0281F88052B2
:10134000C1F88852C1F88C52401CC0B2C1F8945206
:1013500061688142EAD8282241466846FFF785F84D
:1013600094E80F0001F076FE10B184F8BD64A2E7A6
:1013700084F8385084F8BD74206801F05DFE0020C8
:101380009AE7000010B586B0044614216846FFF7BE
:10139000C0F82068B0F1A04F2FD119480021026891
:1013A00042F001020260006800F0010005904FF475
:1013B000C05000900220CDE90101032003900A20D3
:1013C000049069460F48FFF7C1F90D48001D0168F8
:1013D00041F0800101600A481430016841F4804105
:1013E00001600068002200F480400590114643200F
:1013F000FFF710FB4320FFF7FFFA06B010BD000017
:10140000303802400000024070B50446C068012533
:10141000022801D0FFF785F92946D4F8080501F024
:101420006FFAD4F80805BDE8704001F024BAD0F88E
:10143000080501F04EBAD0F8080501F054BA10B50D
:10144000044690F8BC0401280BD0012084F8BC04A9
:1014500084F83810206802F0DFF9002084F8BC041A
:1014600010BD022010BDD0F8082500F2C44110467E
:1014700001F052BA10B50446006894F8BC14012972
:1014800006D0012184F8BC14A16A012902D008E029
:10149000022010BDA169012903D0816B41F4803184
:1014A0008163206802F0E9F8206801F0B7FD0020B0
:1014B00084F8BC0410BD000010B50446D0F808053F
:1014C00001F06CFA2068D0F8001E41F00101C0F86C
:1014D000001E206A002804D00248016841F006017D
:1014E000016010BD10ED00E0704700002DE9F047ED
:1014F0000E46050065D0DFF81481D8F80000F7B279
:1015000000F00700B04207D288F80070D8F8000059
:1015100000F00700B04254D128683D4C810712D535
:10152000400703D5206840F4E05020602878000789
:1015300003D5206840F4604020602068A96820F04E
:10154000F000084320602878C0072DD03049686833
:101550000839012812D0022813D0032811D00968B5
:10156000890700292DDA216821F003010143216058
:10157000FFF7E2F9814641F2883A0EE009688903F3
:10158000EFE709688901ECE7FFF7D6F9A0EB09015D
:10159000514502D90320BDE8F0872068696800F052
:1015A0000C00B0EB810FEFD1D8F80010404601F0ED
:1015B0000701B14207D90770006800F00700B04288
:1015C00001D00120E7E72878400705D52068E968C1
:1015D00020F4E050084320602878000706D52068F2
:1015E000296920F4604040EAC100206000F024F83E
:1015F0002168084AC1F30311515CC84006490860DC
:1016000006480068FFF7C0F90020C4E7003C02402C
:1016100008380240D2900008CC000020C40000200E
:1016200001490120C8647047000047420148006832
:1016300070470000CC000020154810B5006810F07D
:101640000C02144813D01449042A0FD0082A0ED1D2
:101650000F4C241F2268236802F03F025B0207D56B
:101660002068C0F38810A0FB010106E0084610BD09
:101670002168C1F38811A1FB00010023FEF71AFEC7
:101680002168C1F30141491C4900B0FBF1F010BDD4
:10169000083802400024F40040787D01054810B568
:1016A0000068000605D5FFF71FFF02498020891C4E
:1016B000087010BD0C3802402DE9F84F04006ED0C0
:1016C0002078DFF84C93C007A9F104054AD009F14E
:1016D00004000168C1F38101012908D00068C0F34A
:1016E000810002280AD1D9F80000400206D52868F6
:1016F000800337D560680028E1D033E06068B0F53A
:10170000803F10D0B0F5A02F286810D020F4803092
:101710002860286820F4802028606068A8B1FFF75E
:101720000BF906460DE0286840F48030F4E740F4F9
:1017300080202860F7E700BFFFF7FEF8801B6428D1
:1017400073D828688003F7D50CE0FFF7F5F8064654
:1017500005E000BFFFF7F0F8801B6428F0D8286888
:101760008003F7D42078DFF8AC8280074FF0000ABE
:101770003ED5A748001D016811F00C0F08D0006885
:10178000C0F3810002280BD1D9F80000400207D431
:101790002868800716D5E068012800D112E033E1FF
:1017A000E068B8B10120C8F80000FFF7C5F80646A8
:1017B00005E000BFFFF7C0F8801B0228C0D82868EA
:1017C0008007F7D52868216920F0F80040EAC100B9
:1017D00028600DE0C8F800A0FFF7AEF8064604E068
:1017E000FFF7AAF8801B02281FD828688007F7D4C3
:1017F0002078000722D5864F87486169703771B11C
:1018000001210160FFF798F8064604E0FFF794F81D
:10181000801B022809D838688007F7D50EE0C0F889
:1018200000A0FFF789F8064605E082E0FFF784F89C
:10183000801B02287DD838688007F7D420784007BD
:1018400068D5DFF8CCB100270BF13C0BDBF80000CA
:10185000C0000BD4DBF8001041F08051CBF8001031
:10186000DBF80000012700F0805000906B4E3068DC
:10187000C00510D4306840F480703060FFF75CF829
:10188000009005E0FFF758F80099401A022850D858
:101890003068C005F6D55E4EA0686C3601280FD0C2
:1018A0000528306810D020F001003060306820F04A
:1018B00004003060A068B8B1FFF73EF800900FE078
:1018C000306840F00100F4E740F004003060F7E7D2
:1018D000FFF732F80099411A41F28830814266D808
:1018E00030688007F4D50EE0FFF726F8009007E097
:1018F000FFF722F80099411A41F28830814256D808
:1019000030688007F4D42FB1DBF8001021F080514B
:10191000CBF80010A069C8B33D49091D0968C1F39F
:10192000810102294AD00228504607D0C8F8600039
:1019300000E03CE0FFF700F804463BE04746C8F80B
:101940006000FEF7F9FF064605E000BFFEF7F4FF72
:10195000801B02282BD828688001F7D4D4E907011E
:101960000843A16A2E4A490802EB0141626A41EA32
:101970008211084394F82C1040EA0161C9F8001064
:1019800001203866FEF7D8FF044606E03EE000BFBF
:10199000FEF7D2FF001B022809D828688001F7D57E
:1019A00034E000BFFEF7C8FF001B022802D9032065
:1019B000BDE8F88F28688001F4D427E00128F7D02B
:1019C000D9F80000E26900F4800191421CD1226A3A
:1019D00000F03F01914217D147F6C071626A0140A1
:1019E000B1EB821F10D1A26A4FF0FF3300F44031F7
:1019F00003EB5202B1EB024F06D194F82C1000F029
:101A00007060B0EB016F01D00120D1E70020CFE77B
:101A10000438024000004742800E474200700040F8
:101A20000000FFFF10B5401EB0F1807F01D3012000
:101A300010BD4FF0E02460610F21601701F09FFF9F
:101A40000020A06107202061002010BDFEE70000FB
:101A5000F0B500230A24302537261F4611E000BFC9
:101A6000B4EB107F02D905EB107C01E006EB107C93
:101A700001F813C001EB430C00015B1C8CF80170F2
:101A8000DBB29342ECD3F0BD70B586B0142168464A
:101A9000FEF73FFD19480024016841F00401016090
:101AA000016801F004010591016841F080010160C5
:101AB000016801F080010591016841F001010160B8
:101AC00000680F4E00F001004FF400550590002211
:101AD00029463046FEF72AFF00950125CDE901543D
:101AE000694630460394FEF731FE02208DE831004E
:101AF00069460448FEF72AFE06B070BD3038024041
:101B0000000802400000024010B500220F491048B2
:101B100000F057FD08B1FEF704FE0E490C4800F036
:101B200065FF08B1FEF7FDFD0B49094800F0FEFA1C
:101B300008B1FEF7F6FD064800F0DCFF002803D0F0
:101B4000BDE81040FEF7EDBD10BD00005C000020B8
:101B5000900B002028010020AC000020FEE7FFF7DA
:101B60009DFDFEE70148FFF7E3B800008C1A002056
:101B70002DE9F04103680D4604461E6C03EB451148
:101B8000D1F8080BD4F810E04FF400474FF0200CC8
:101B900004F2C442BEF1010F09D0DFF898E07645A7
:101BA00039D1020432D500BFC1F8087B3FE0224B97
:101BB0005FEA007E04D59E4239D90004F4D436E0B1
:101BC0005FEA806E02D5C1F808CB30E010F0280F34
:101BD0002DD19E4201D90004E6D405EBC50004EBEB
:101BE0008000D1F8101BD0F89832C1F31201591AB5
:101BF000C0F89C1200F51F70ADB983691BB1026972
:101C0000114401610FE0012120680AE080060AD535
:101C1000C1F808CB07E035B9D4F8940218B900210F
:101C2000184601F065FBE9B22046FEF759FF002097
:101C3000BDE8F0810A31544F0A30544F2DE9F84F76
:101C40000E4601EBC60100EB810481460568616D1B
:101C5000E06D3C34884202D90120BDE8F88F081AB3
:101C6000E168814200D20846C01C870805EB46188F
:101C70001BE000BFA0EB010AE068504500D282469D
:101C80000AF10300870899F8100000901FFA8AF300
:101C9000F2B22846216901F045FE216901EB0A00F4
:101CA0002061216A01EB0A002062D8F8180980B28D
:101CB000B84205D3216AA069814201D20028D9D156
:101CC000216AA069884208D806F00F0101208840E7
:101CD000D5F834188143C5F834180020BDE77047A3
:101CE00070470178407841EA00207047FEF72ABE2D
:101CF00030B593B030216846FEF70BFC14210CA8D8
:101D0000FEF707FC1F480024016841F08051016084
:101D1000006800F0805011901B48016821F4404198
:101D200041F4004101600068022500F44040119038
:101D300001200090000401908001CDE90650192097
:101D400008904FF4A870099004200A9007200B9087
:101D50006846FFF7B1FC08B172B6FEE70F20CDE987
:101D60000C054FF48050CDE90E4002210CA81094D0
:101D7000FFF7BCFB08B172B6FEE7FFF751FC13B0EA
:101D800030BD000040380240007000400248016849
:101D900041F470010160704788ED00E02DE9F041E9
:101DA0000C46D0F8D412D0F8C82200EB8101D1F84B
:101DB000C01229B304F00F0606EB860300EB83057F
:101DC0000027AB694BB106EBC60602EB8602926CAC
:101DD000B3FBF2F602FB1632A2B1C1F81472D0F8CE
:101DE000D42200EB8200D0F8C40203692BB1D1F8F1
:101DF0000802224601F5047198470020BDE8F081F1
:101E00000320FBE700231A462146AF6100F0CFFD17
:101E1000F3E770B50546D0F8D40205EB8000D0F8A2
:101E2000C04294B1284600F0A4FCC4F80C02D5F8D6
:101E3000D412D4F8040205EB8101D1F8C412CA68A7
:101E400004F503719047002070BD032070BD0000B1
:101E500070B5224D0446297800F0CFFB2878002683
:101E600000F00F0000EB800004EB800086846978AE
:101E7000204600F0C2FB687800F00F0000EB800005
:101E800004EB8000A0F86461A978204600F0B5FB5F
:101E9000A87800F00F0000EB800004EB800086843F
:101EA000C684D4F8D40204EB8000D0F8C01299B1F3
:101EB000D0F8C40240688047D4F8D40204EB800014
:101EC000D0F8C00200F097FFD4F8D40204EB8000F1
:101ED000C0F8C062C4F8BC62002070BDD40000200D
:101EE00010B5D0F8D41200EB8100D0F8C04284B114
:101EF000D0F8C41259B194F80002FF2807D08B68BB
:101F000094F8012221469847FF2084F8000200201F
:101F100010BD032010BD00000A2101800048704759
:101F2000D800002070B5064682210C4800F0F5FA72
:101F300005460121094800F0F0FA044681210748CE
:101F400000F0EBFA0DB11021A971402104B1A1807C
:101F500000B1818043203080004870BDE400002043
:101F600070B5064682210D4800F0D7FA05460121DA
:101F70000A4800F0D2FA04468121084800F0CDFA60
:101F80000DB11021A9714FF4007104B1A18000B10D
:101F9000818043203080014870BD0000E4000020B3
:101FA00070B5064682210C4800F0B7FA05460121BB
:101FB000094800F0B2FA04468121074800F0ADFA62
:101FC0000DB11021A971402104B1A18000B181801F
:101FD00043203080004870BDE40000202DE9F04728
:101FE00004464FF40775284600F006FF06004FF040
:101FF000000863D02946FEF78CFAD4F8D4023C4D91
:1020000004EB80004FF01009C0F8C062C4F8BC6255
:10201000207C4FF4007A0127F0B340230222297874
:10202000204600F013FC2878402300F00F0000EB5E
:10203000800004EB8000878402226978204600F04B
:1020400005FC6878082300F00F0000EB800004EB2B
:1020500080000322A0F86471A978204601F00F01E6
:1020600001EB810104EB8101A1F82690A97800F031
:10207000EDFBA87800F00F0000EB800004EB80007F
:102080008784C6F80482D4F8D402474604EB800063
:10209000D0F8C402006800E018E006F50176804739
:1020A0003761776132687AB1207CF8B14023697872
:1020B000204600F0D7FB0020BDE8F087D4F8D4120A
:1020C00004EB8101C1F8C0820220F5E753460222E9
:1020D0002978204600F0BAFB2878534600F00F001C
:1020E00000EB800004EB80008784A5E75346DEE721
:1020F000D400002010B5D0F8D41200EB8101D1F843
:10210000C01259B1027C084C002AD1F8042207D031
:102110004023617800F0A6FB002010BD032010BD15
:102120004FF40073F5E70000D400002039B1D0F877
:10213000D42200EB8200C0F8C412002070470320B4
:102140007047D0F8D42200EB8200D0F8C00218B15A
:10215000C0F804120020704703207047D0F8D43232
:1021600000EB8300D0F8C00228B1C0F81022C0F8FC
:10217000081200207047032070472DE9FC410646F5
:10218000D0F8D4020C4606EB80000021D0F8C072D3
:102190008DF80010ADF804100D4637B1217811F01C
:1021A00060022FD0202A4BD102E00320BDE8FC8141
:1021B000E288F2B109060DD5D0F8C4026378394639
:1021C000D0F808C01846E047E288072A00D907225D
:1021D00039462DE0607887F80002E088402800D377
:1021E0004020C2B287F801223946304600F081F81B
:1021F0002BE0D0F8C4026378002286682146184696
:10220000B04722E0607830B101281ED00A2809D0FA
:102210000B2815D110E096F89C02032810D1022259
:1022200001A905E096F89C02032809D1012269461C
:10223000304600F078F808E096F89C02032804D0B5
:102240002146304600F04AF803252846AEE7000054
:1022500010B5D0F8D41200EB8101D1F8C0220121D1
:102260001AB1D2F8143213B116E0032010BD0121C7
:10227000C2F814120949D2F81032097801F00F049B
:1022800004EB840400EB8404A361D2F81032D2F88A
:10229000082200F08CFB0021084610BDD40000206D
:1022A00010B5D0F8B82200245268904700B103243A
:1022B000204610BD0020704700207047134610B51F
:1022C0000A46002100F0CEFA002010BD134610B5DA
:1022D0000A46002100F06BFB002010BD10B504463B
:1022E000802100F049FB2046BDE81040002100F0AD
:1022F00043BB10B50323C0F89432C0F858211346ED
:10230000C0F85C210A46002100F0ACFA002010BDA4
:1023100010B50521C0F8941200231A46194600F0A2
:10232000A1FA002010BD10B50223C0F894328261DA
:102330001346C2610A46002100F039FB002010BD9F
:1023400010B50421C0F8941200231A46194600F073
:102350002EFB002010BD000010B50A46024903A064
:1023600000F0FFF8004810BD6C0E002043444320ED
:10237000436F6E666967000012200880004870474E
:102380007C00002010B50A46024903A000F0E9F8DD
:10239000004810BD6C0E002043444320496E746514
:1023A0007266616365000000042008800048704781
:1023B0007800002010B50A46024903A000F0D1F8C9
:1023C000004810BD6C0E002053544D6963726F6558
:1023D0006C656374726F6E696373000010B50A46B2
:1023E000024903A000F0BDF8004810BD6C0E0020AB
:1023F00053544D3332204D435500000010B51A2080
:1024000008800A480168001D0468001D006808185B
:1024100009D008220649FFF71BFB054904221031A9
:102420002046FFF715FB0248801E10BD107AFF1FE3
:1024300092000020F8B504460020ADF8000048885E
:102440000D46010A08295FD2DFE801F05E04091792
:102450005E5E3C45D4F8B412207C0A6819E0207C0A
:1024600002260028D4F8B80205D0C16A6846884719
:102470000146467039E0816AF8E7C0B2062843D2C7
:10248000DFE800F0030A1014181CD4F8B402426804
:1024900005E0694690471CE0D4F8B402826892B324
:1024A000207CF6E7D4F8B402C268F8E7D4F8B402A6
:1024B0000269F4E7D4F8B4024269F0E7D4F8B40250
:1024C0008269ECE7207CF0B9D4F8B802416B684629
:1024D0008847014609E0207CA8B9D4F8B802016B0E
:1024E00068468847014607204870EA888AB1BDF8E7
:1024F000000040B1824200D90246ADF800202046DB
:10250000FFF711FFF8BDFFE729462046FFF7E6FE7B
:10251000F8E72046FFF714FFF4E778B50E46428847
:102520000178002504468A4212D9ADF800100AE06D
:10253000694600F00FF84178052904D181780546F5
:10254000B14205D000256188BDF800209142EFD846
:10255000284678BD0A8803781A440A80017808441E
:10256000704770B5002300281ED00025044602E005
:102570006D1CEDB2641C2678002EF9D1022404EB08
:10258000450414801278CA545B1C0322CA540024E8
:102590005B1C06E0CA545B1CDAB28C54521CD3B2EA
:1025A000401C0278002AF5D170BD01004FF00000F8
:1025B00004D0012901D0022901D003207047012055
:1025C000704778B10023C0F8B832C0F8C432C0F800
:1025D000D03209B1C0F8B412012180F89C12027007
:1025E00000F0CCB80320704710B5D0F8C802FEF751
:1025F000BAFABDE81040FFF7D8BF10B5D0F8C8024E
:10260000FEF78BFABDE81040FFF7CFBF2DE9F04190
:1026100017460446002521B194F89C02032842D0B5
:102620004CE0D4F8941204F11400022935D1D0E919
:1026300002639E4206D9F21A826039462046FFF7AD
:1026400045FE0FE0B34214D14068984211D3D4F84C
:10265000981288420DD2002211462046FFF736FE1E
:10266000C4F8985200231A461946204600F0FAF89A
:1026700013E094F89C02032808D1D4F8B802C1688A
:1026800021B1C4F8D452C168204688478021204631
:1026900000F072F92046FFF73BFE94F8A00268B103
:1026A00084F8A0520AE0D4F8B802426932B1C4F802
:1026B000D452426920469047002800D10020BDE84E
:1026C000F08170B513460446002221B194F89C02B3
:1026D000032830D03AE0D4F8941204F5AA70032904
:1026E00034D1D0E902518D420AD96A1A8260084673
:1026F000824200D3024619462046FFF7DFFD25E05F
:1027000094F8AA0210F01F0003D0012802D002287A
:1027100000D0002294F89C02032808D1D4F8B80213
:10272000016921B1C4F8D4220169204688472046B6
:10273000FFF706FE0AE0D4F8B802836933B1C4F8A3
:10274000D422826920469047002800D1002070BD25
:102750000020704710B50024012180F89C12D0F8A9
:10276000B82222B152680179904700B10324204673
:1027700010BDD0F8C802FEF724BA000010B50178E9
:1027800039BB15490222C1F80805C0F8C8124FF03C
:10279000A0400860042048600020C1E90320C1E98E
:1027A000062008624862C86208630846FEF778FDA2
:1027B00008B1FDF7B6FF80210748FEF75EF9402219
:1027C00000210548FEF75DF9802201210248FEF74D
:1027D00058F9002010BD00008C1A00200A0601F0F4
:1027E0007F01D0F8C80201EBC10100EB810002D5E6
:1027F00090F83E00704790F87E02704710B5D0F810
:10280000D42200EB8202D2F8B82222B190F89C3296
:10281000032B02D004E0032010BD126A02B19047DE
:10282000002010BD10B5D0F8D42200EB8202D2F8FF
:10283000B82222B190F89C32032B02D004E003208E
:1028400010BD526A02B19047002010BD10B51C4661
:102850001346D0F8C8022246FEF7BCF9BDE8104086
:10286000FFF7A3BE10B5D0F8C802FEF7E3F9BDE844
:102870001040FFF79ABE2DE9F041002601250446DD
:1028800080F89C52C4F894626660C4F8A46280F830
:10289000A062D0F8B80230B1426822B100212046CF
:1028A000904700B103260022402311462046FFF73F
:1028B000CDFF4027A4F864513B46002280212046EA
:1028C000C4F86071FFF7C2FFA58430462762BDE8F7
:1028D000F08190F89C12042903D190F89D1280F8A1
:1028E0009C120020704710B590F89C12032905D166
:1028F000D0F8B81211B1C96901B18847002010BDE4
:1029000001740020704710B5D0F8C802FEF797FD9B
:10291000BDE81040FFF749BE70B5044600F2AA209A
:10292000054600F04DF80120C4F89402B4F8B00256
:10293000C4F8980294F8AA0210F01F010AD00129E5
:102940000ED0022912D000F080012046BDE8704070
:1029500000F012B829462046BDE8704000F0CCB81F
:1029600029462046BDE8704000F00CBA29462046B2
:10297000BDE8704000F056B910B5D0F8C802FEF7B7
:102980007DF9BDE81040FFF710BE10B5D0F8C802C1
:10299000FEF770FDBDE81040FFF707BE90F89C12EF
:1029A00080F89D12042180F89C120020704710B519
:1029B000D0F8C802FEF79CF9BDE81040FFF7F5BD5E
:1029C00070B5054611F8010B2870087868704C1C2A
:1029D0002046FFF786F96880A41C2046FFF781F99E
:1029E000A880A01CFFF77DF9E88070BD38B50446CB
:1029F0000020ADF80000A1B1C4F8B812D4F8D40298
:102A000004EB8000D0F8B802C16A19B16846884763
:102A1000C4F8D002D4F8D802401CC4F8D802002070
:102A200038BD032038BD02460020D2F8B832002B52
:102A300002D01B6810461847704700002DE9F0418E
:102A400088462B4E8978002504463170012906D925
:102A500041462046FFF742FC0320BDE8F08194F890
:102A60009C02022702280CD003281DD04146204694
:102A7000FFF734FC31782046FFF712FC0325284687
:102A8000EBE789B320466160FFF7CDFF050004D076
:102A900041462046FFF722FC1DE02046FFF750FC90
:102AA000032084F89C02EAE7C1B1606888421BD029
:102AB000C1B22046FFF7F4FB317820466160FFF792
:102AC000B2FF050010D041462046FFF707FC2179F0
:102AD0002046FFF7E5FB84F89C72D0E784F89C72EF
:102AE00020466160FFF7DCFB2046FFF729FCC6E7C4
:102AF000D0000020FFF749BF2DE9F0410A780025FA
:102B000012F060020CD0202A01D0402A7DD1D0F8EA
:102B1000D42200EB8202D2F8B8229268904731E0CA
:102B20004B78002201260A2B6FD2DFE803F04166C2
:102B30006E586E08056E2D29FFF77CFC67E0044691
:102B40008888D8B9C888C8B94888802816D200F0C3
:102B50007F0794F89C02032810D084F89E723946AF
:102B60002046FFF7D0FE2046FFF7EAFB1FB1022008
:102B700084F89C024BE084F89C6248E0204644E0E4
:102B8000FFF75CFF054642E0CB88012B3DD190F872
:102B90009C32012B04D0022B02D0032B35D104E050
:102BA0008260012200F1080116E00122011D13E0FC
:102BB00090F89C22012A03D0022A01D0032A24D1B2
:102BC000CA88022A21D1C660D0F8A41209B1032113
:102BD000C160022200F10C01FFF7A5FB17E04A8853
:102BE000012A02D0022A03D00FE0C0F8A46216E046
:102BF0008988090A80F8A01211E090F89C32012B14
:102C000008D0022B06D0032B04D0FFF767FB284621
:102C1000BDE8F08149880129F9D1C0F8A422FFF765
:102C20008FFBF4E72DE9F041054608780C790E4654
:102C30004FF0000810F060000BD0202801D0402891
:102C40006AD121462846FFF735FBFF2800D0D8B3CC
:102C500095E07078C8B3012824D003285CD195F89A
:102C60009C02022802D0032856D10CE0002C53D03D
:102C7000802C51D021462846FFF77EFE8021284631
:102C8000FFF77AFE7BE0708840B93CB1802C05D01C
:102C9000C88818B921462846FFF76EFE2846FFF778
:102CA0004FFB6CE095F89C020228DFD0032863D12B
:102CB000708880BB600603D021462846FFF794FC4D
:102CC0002846FFF73DFBBCE700E00AE0C5F8D40268
:102CD000D5F8B8028268F2B131462846904780465E
:102CE0004DE095F89C020027022802D0032843D12A
:102CF00013E00CB1802C3FD1200604F07F0000EBE4
:102D0000800005EB800101D5143101E001F5AA71C5
:102D100002220F602CE032E02EE0200604F00F00CB
:102D200000EB800005EB800009D5808C20B304F017
:102D30007F0000EB800005EB800614360AE0B0F857
:102D40006401C8B104F07F0000EB800005EB800651
:102D500006F5AA764CB1802C07D021462846FFF70D
:102D60003DFD10B10120306000E0376002223146A5
:102D70002846FFF7D8FA02E02846FFF7AFFA4046A8
:102D8000BDE8F08170B50546087800240E4610F0C5
:102D9000600003D0202801D0402827D195F89C025C
:102DA000012803D0022801D003281FD1B088C1B266
:102DB00001291AD8C1B22846FFF77EFAFF280CD0A5
:102DC00058B9D5F8B8128A683AB1C5F8D4028A68F9
:102DD000314628469047044600E00324F08820430B
:102DE00007D12846FFF7ACFA03E031462846FFF743
:102DF00075FA204670BD7047004870476C18002077
:102E000070B50A78012302F00F054E78AB401B4CD9
:102E1000D0F81C58012E17D045EA0343C0F81C38DF
:102E200000EB4210D0F8002B12040BD4D0F8002B8A
:102E30008B890979C3F30A031A4344EA81410A439F
:102E4000C0F8002B002070BD9BB21D43C0F81C5879
:102E500000EB4210D0F800391B04F3D4D0F800394D
:102E60008D890979C5F30A0589042B4341EA82510A
:102E70000B432343C0F80039E4E700000080001052
:102E8000D0F800196FF30A01C0F80019D0F804183F
:102E900041F48071C0F804180020704770B50446F2
:102EA00006990A9E049D0D98012916D0E06840F00D
:102EB0004000E060204600F02BF8A16B1EB321F427
:102EC0008031A163012D07D1A16841F00601A16005
:102ED000A16841F02001A16070BDA16B21F4803197
:102EE000A163E168094A1140E160E16821F4401101
:102EF000E160012803D1E06840F48010E0602046E2
:102F000000F006F8DEE741F48031DAE7BFFFBDFFED
:102F100008B500220D490092009B5B1C00938B4278
:102F20000CD80369002BF7DA0092026942F0010223
:102F30000261009A521C00928A4201D9032008BD06
:102F40000269D207F5D1002008BD0000400D030042
:102F500030B54C780A78012300EB4212012C2CD0BA
:102F6000D2F8004B002C0BDAD2F8004B44F000648E
:102F7000C2F8004BD2F8004B44F08044C2F8004B3A
:102F8000D0F83C580C7804F00F0403FA04F425EA56
:102F90000444C0F83C48D0F81C48097801F00F01FF
:102FA0008B4024EA0341C0F81C18D2F8000B1949E1
:102FB0000840C2F8000B002030BDD2F80049002CB8
:102FC0000BDAD2F8004944F00064C2F80049D2F8A4
:102FD000004944F08044C2F80049D0F83C480D78DC
:102FE00005F00F0503FA05F5ADB2AC43C0F83C4857
:102FF000D0F81C48097801F00F018B4099B28C433E
:10300000C0F81C48D2F8000903490840C2F800097A
:10301000D1E700000078F3EF007833ECD0F8001E21
:1030200021F00301C0F8001ED0F8041821F00201BD
:10303000C0F8041800207047D0F8001E21F00301EA
:10304000C0F8001ED0F8041841F00201C0F80418BE
:10305000002070472DE9F04F00250E460446DDF8AC
:103060002CC0DDF824B0109F2846294604EB8002CE
:10307000C2F80411401C0F28F8D32046C7B1806B5A
:1030800020F40012A263A06B40F40022A263084661
:103090008846C4F8000ED4F800182046C4F800187A
:1030A000BCF1010F16D0D0F8001841F0030116E072
:1030B000D0F8040840F00202C4F80428A06B40F4E1
:1030C0000012A263A06B20F40022A263A06B20F484
:1030D0008022DBE7D0F800180BB141F00101C0F805
:1030E0000018102100F0EEFA00B10125204600F092
:1030F000CBFA00B101254046C4F81088C4F8148802
:10310000C4F81C8800214FF000694FF0904A4FF638
:103110007F3314E004EB4112D2F800C9BCF1000F78
:1031200006DA11B1C2F800A904E0C4F8009901E080
:10313000C2F80009C2F81009C2F80839491C8E42C9
:10314000E8D8002115E000BF04EB4112D2F800CB13
:10315000BCF1000F06DA11B1C2F800AB04E0C4F80C
:10316000009B01E0C2F8000BC2F8100BC2F8083B4C
:10317000491C8E42E8D8D4F8101821F48072C4F8A3
:103180001028A0616FF080406061BBF1000F03D197
:10319000A06940F01000A061A06909490843A0613E
:1031A0000C9818B1A06940F00800A061012F03D16C
:1031B000A06904490843A0612846BDE8F08F0000DB
:1031C00000383C8004000040816821F001018160EA
:1031D0000020704770B50D784E78444CEBB200EB90
:1031E0004313012E21D0D3F8100B6FF31200C3F854
:1031F000100BD3F8100B2040C3F8100B886908B1EE
:10320000C8688861C868C861D3F8100B40F4002012
:10321000C3F8100BD3F8100BCC69C4F3120420438D
:10322000C3F8100B012A55D058E08E69002ED3F850
:10323000106932D06FF31206C3F81069D3F8106921
:103240002640C3F810698E69CC68A64200D98C610B
:10325000D3F8104944F40024C3F81049D3F81049B6
:103260008E69C6F312063443C3F81049012A22D0EE
:1032700000EB4512D2F8003943F00443C2F800399C
:103280008A6932B3D0F83428097801F00F0301219C
:1032900099400A43C0F8342826E02640C3F8106954
:1032A000D3F8104944F40024C3F81049D3F8104966
:1032B0006FF31204D8E7496919B100EB4512C2F85F
:1032C000141900EB4510D0F8001941F00441C0F882
:1032D000001909E0086908B1C3F8140BD3F8000B12
:1032E00040F00440C3F8000B002070BDFFFF07E072
:1032F00010B5036C134CA34203D9D0F8003B002B4C
:103300001EDB0023C0F8103BD0F8103B43F4002331
:10331000C0F8103BD0F8103B43F01803C0F8103B46
:10332000D0F8103B43F0C043C0F8103B012907D14F
:10333000C0F8142BD0F8001B41F08021C0F8001B0E
:10334000002010BD0A30544F4A780B78012A00EB58
:1033500043100BD0D0F8002B22F40012C0F8002B41
:103360000979032914D0022912D017E0D0F80029D6
:1033700022F40012C0F800290979032901D002299A
:103380000CD1D0F8001941F08051C0F8001905E0C7
:10339000D0F8001B41F08051C0F8001B002070479E
:1033A0000A784B78D1B200EB4110012B12D0D0F843
:1033B000001B002906DB2AB1D0F8001B21F0804158
:1033C000C0F8001BD0F8001B41F40011C0F8001B2E
:1033D00000207047D0F80019002906DB2AB1D0F888
:1033E000001921F08041C0F80019D0F8001941F40B
:1033F0000011C0F80019EBE7F8B50C784F78764D5E
:10340000E3B26FF0604600EB4313012F27D0D3F8EF
:10341000104B6FF31204C3F8104BD3F8104B2C4031
:10342000C3F8104B8D69002D75D0CC6825446D1EF6
:10343000B5FBF4F5ADB26C43CC61D3F8104B06EAA2
:10344000C5452C43C3F8104BD3F8104BCD69C5F3D9
:1034500012052C43C3F8104B012A71D0A4E08F69E8
:103460001FB3D3F810796FF31207C3F81079D3F8AC
:1034700010792F40C3F810798F69CD682F447F1ED3
:10348000B7FBF5F506EAC545D3F810693543C3F82F
:103490001059D3F810598E69C6F312063543C3F894
:1034A00010590D79012D10D01BE0D3F810692E4072
:1034B000C3F81069D3F8105945F40025C3F8105922
:1034C000D3F810596FF3120509E0D3F8105925F01D
:1034D000C045C3F81059D3F8105945F00055C3F84A
:1034E0001059012A18D000EB4413D3F8004944F0D6
:1034F0000444C3F800490C79012C2FD08A6962B3C7
:10350000D0F83428097801F00F03012199400A43CB
:10351000C0F834285EE036E04A691AB100EB441383
:10352000C3F81429097901290FD1D0F80818C90561
:1035300000EB4411D1F8002903D442F0005202E01C
:103540002EE042F08052C1F8002900EB4410D0F880
:10355000001941F00441C0F800193BE0D0F80848D8
:10356000E405D3F8004902D444F0005401E044F0EB
:103570008054C3F8004900920A8B93B20A78096913
:1035800000F0D0F926E0D3F8104BCD68C5F3120552
:103590002C43C3F8104BD3F8104B44F4002459E7E4
:1035A0000A690AB1C3F8142B097901290CD1D0F8A2
:1035B0000808C005D3F8000B02D440F0005001E029
:1035C00040F08050C3F8000BD3F8000B40F00440EB
:1035D000C3F8000B0020F8BDFFFF07E038B500225C
:1035E000009213464D780A7842F2107400EB4212B2
:1035F000012D19D0D2F8005B002D3CDAD2F8005B27
:1036000045F00065C2F8005B0A7800EB4212D2F880
:10361000005B45F08045C2F8005B009A521C0092A6
:10362000A24221D9012326E0D2F80059002D22DA46
:10363000D2F8005945F00065C2F800590A7800EB4D
:103640004212D2F8005945F08045C2F80059009A5C
:10365000521C0092A242E5D80A7800EB4212D2F83E
:103660000029002AF3DB06E00A7800EB4212D2F8C8
:10367000002B002AD1DB184638BD816841F00101DA
:10368000816000207047000008B500220C490092BC
:10369000009B5B1C00938B420AD80369002BF7DA6E
:1036A000009210220261009A521C00928A4201D9B3
:1036B000032008BD0269D206F5D4002008BD000031
:1036C000400D030018B500230D4A0093009C641CB4
:1036D000009494420CD80469002CF7DA009320235C
:1036E00043EA811101610099491C0091914201D97D
:1036F000032018BD01698906F5D4002018BD00001B
:10370000400D0300D0F8080810F0060004D002288D
:1037100003D0062801D00F2070470220704740696F
:1037200000F001007047D0F81818D0F81C080840C5
:1037300080B27047D0F81818D0F81C080840000C68
:10374000704710B5D0F81038D0F8342801F00F04C5
:1037500000EB4110E24002F00102D0F8080943EA10
:10376000C212104010BD00EB4111D1F8081BD0F877
:10377000140808407047416980690840704730B5B7
:1037800003460846940802F00301002203F5805323
:1037900003E01D6840F8045B521CA242F9D30029E3
:1037A0000BD01C680022D50024FA05F3491E521CD8
:1037B000090400F8013B090CF5D130BD70B5044691
:1037C000C068002520F0C040E060012901D079B137
:1037D00020E0E06840F00050E0600120FCF7A4FF2A
:1037E00060696D1C10F0010F10D1322DF5D30DE082
:1037F000E06840F08040E0600120FCF795FF6069E0
:103800006D1C10F0010F01D0322DF5D3322D01D0F7
:10381000002070BD012070BDD0F8002822F4FE62A7
:10382000C0F80028D0F800284FF4FE6303EA011125
:103830000A43C0F80028002070470000022A3ED149
:10384000264A274B0A449A4201D20F2138E0254AE2
:10385000254B0A449A4201D20E2131E0234A244BDF
:103860000A449A4201D20D212AE0224A224B0A44FC
:103870009A4201D20C2123E0204A214B0A449A4269
:1038800001D20B211CE01F4A1F4B0A449A4201D26D
:103890000A2115E01D4A1E4B0A449A420FD31D4AC5
:1038A0001D4B0A449A4201D2082109E01B4A1144E7
:1038B0001B4A914201D2072102E0062100E00921C2
:1038C000C26822F47052C260C2684FF4705303EAB7
:1038D00081210A43C260002070470000405327FF47
:1038E00000350C00401E1BFF40420F0000DC0BFFA8
:1038F000804F1200808CF9FE20D6130060B6E5FEE2
:1039000060E3160000D3CEFE40771B00C05BB3FE21
:10391000C091210000CA91FE20753800E05459FE84
:10392000E09C410010B5029C74B9DB1C9C0800EBC4
:103930000230002300F5805004E000BF51F8042B52
:1039400002605B1CA342F9D3002010BDFEE703B464
:1039500001984100009850EAC12018BF04204A0D88
:1039600018BF40F0010040F2FF72B2EB515F08BF98
:1039700040F00200012808BF052002B07047090787
:10398000090E002804DB00F1E02080F800147047E5
:1039900000F00F0000F1E02080F8141D70470000D7
:1039A00010B5B94A2DED020B2DED0C8B82B00F999D
:1039B00021F000409FEDB6CB90422CDBA0F14053AC
:1039C0000E9AA3F17F631A430FD0B349884202DCF9
:1039D00016D10E98A0B19DED0E0B02B0BDEC0C8B74
:1039E00002B0BDE8104001F023BF0029C1BF9FED28
:1039F000AC0B02B0BDEC0C8B02B0C8BF10BD16E022
:103A00000120FCF7B5FD02B0BDEC0C8B02B0BDE8A7
:103A1000104001F021BFA44A9FEDA59B9FEDA6ABEE
:103A200090425EDAA6499FEDA8CB814208DBB0EE5A
:103A30004C0AF0EE6C0A02B0BDEC0C8B02B010BD6B
:103A40009DED0E0B53EC102B51EC100B04F058FFB6
:103A500041EC180B9E480621B0EE480AF0EE680AC9
:103A6000784401F0B9FD53EC182B51EC100B04F025
:103A700047FF41EC1B0B9748B0EE480AF0EE680A8E
:103A80000421784401F0A8FD53EC182B51EC100BE5
:103A900004F036FF53EC192B04F04CFC41EC100BF6
:103AA00051EC1B0B53EC102B04F000FD41EC100B00
:103AB00053EC102B9DED0E0B51EC100B04F020FF7E
:103AC00053EC1A2B05F050F89DED0E1B53EC112B07
:103AD00005F04AF853EC1C2B05F046F841EC100BAE
:103AE000A9E79FED7D8B9FED7EBB9DED0E0B002921
:103AF00053EC192B51EC100B52DA04F01BFC53EC75
:103B0000182B04F0FDFE41EC180B77480621B0EEAF
:103B1000480AF0EE680A784401F05EFD53EC182B79
:103B200051EC100B04F0ECFE41EC1D0B6F48B0EEB5
:103B3000480AF0EE680A0421784401F04DFD53EC88
:103B4000182B51EC100B04F0DBFE53EC192B04F096
:103B5000F1FB41EC190B51EC180B04F03FFB41EC6D
:103B6000180B53EC192B51EC1D0B04F09FFC53EC7C
:103B7000182B04F0C5FE53EC1A2B05F0CDF841ECE0
:103B8000100B51EC180B53EC102B04F0D3FB53EC3F
:103B90001B2B04F0B5FE53EC1C2B04F0E5FF6DE08D
:103BA00004F0E2FF53EC182B04F0AAFE41EC180BD2
:103BB00004F014FB41EC1A0B00208DED00AB0090DB
:103BC0009DED000B51EC1A0B53EC102B04F0B2FBE3
:103BD0009DED000B41EC1C0B53EC102B51EC100B2A
:103BE00004F08EFE53EC182B04F0BEFF53EC1C2B9C
:103BF00004F05CFC41EC1C0B3D48B0EE480AF0EED2
:103C0000680A0621784401F0E7FC53EC182B51ECCC
:103C1000100B04F075FE41EC1D0B3648B0EE480A5F
:103C2000F0EE680A0421784401F0D6FC53EC182B1E
:103C300051EC100B04F064FE53EC192B04F07AFBEA
:103C400041EC100B51EC1D0B53EC102B04F02EFC2F
:103C500053EC1A2B04F054FE53EC1C2B04F06AFBBB
:103C600041EC100B53EC102B9DED000B51EC100BA5
:103C700004F060FB53EC1B2B04F042FE41EC100BF4
:103C8000D9E60000000000000000F03F0000000046
:103C9000182D4454FB2109400000F07F0000000073
:103CA00000000000000000000000E03F00000000F5
:103CB000000000000000F03F075C143326A6913C92
:103CC0000000603C00000000182D4454FB21F93F27
:103CD0008456000092560000000000000000E03F03
:103CE0000000000000000040CE550000DC55000040
:103CF000E0540000EE54000070B59B482DED020B1F
:103D00002DED068B079D25F00044A04218DC974856
:103D1000844202DC0AD1069840B19DED060BBDEC51
:103D2000068B02B0BDE8704001F082BD002DCCBF13
:103D30009FED8F0B9FED900BBDEC068B02B070BD1D
:103D40008F48A04215DD8F48A042D8BF4FF0FF3406
:103D500058DD9DED060B51EC100BFFF7F8FD042824
:103D600008BF01F099FD9DED060BBDEC068B02B07E
:103D700070BD9DED060B51EC100B01F00AFFCDE973
:103D8000060181489FED828BA0423CDD8248A04223
:103D90001FDD00249FED82AB9DED060B53EC1A2B2B
:103DA00051EC100B04F0C6FA9DED060B41EC190B1B
:103DB00053EC1A2B51EC100B04F0A2FD53EC182B12
:103DC00004F0AAFF53EC192B04F070FBCDE90601B7
:103DD00049E09DED060B012453EC182B51EC100B20
:103DE00004F0A8FA9DED060B41EC190B53EC182BCF
:103DF00051EC100B04F090FF53EC192B04F056FB20
:103E0000CDE906012FE06848A0421FDD02249FEDA6
:103E1000689B9DED060B53EC192B51EC100B04F035
:103E20006FFD53EC182B04F085FA9DED060B41EC69
:103E3000180B53EC192B51EC100B04F06DFF53ECE5
:103E4000182B04F033FBCDE906010CE09DED060BC9
:103E5000032453EC102B9FED580B51EC100B04F086
:103E600025FBCDE906019DED060B53EC102B51EC23
:103E7000100B04F045FD41EC180B53EC182B04F02B
:103E80003FFD41EC190B4E480621B0EE490AF0EE19
:103E9000690A784401F0A0FB53EC182B51EC100B8D
:103EA00004F02EFD41EC180B4648B0EE490AF0EE46
:103EB000690A0521784401F08FFB53EC192B51EC72
:103EC000100B04F01DFD41EC100B51EC180B53ECE2
:103ED000102B002C0EDA04F02DFA9DED061B53EC8E
:103EE000112B04F00DFD9DED061B53EC112B04F07E
:103EF0003BFE35E004F01EFA9DED061B53EC112B42
:103F000004F0FEFC41EC100B2F48784400EBC40099
:103F100090ED001B51EC100B53EC112B04F0FCFE48
:103F20009DED061B53EC112B04F0F6FE41EC100B3B
:103F30002648784400EBC40090ED001B51EC100BB8
:103F400053EC112B04F010FE41EC100B002DA2BF1E
:103F5000BDEC068B02B070BD51EC100B04F0ACF957
:103F600041EC100B01E70000000010440000F07F5E
:103F7000182D4454FB21F93F182D4454FB21F9BF5F
:103F80000000DC3F0000203E0000F33F0000000086
:103F9000000000000000F03F0000E63F00000000CD
:103FA000000000000000004000800340000000000E
:103FB000000000000000F83F000000000000F0BF1B
:103FC0009253000048530000D25200008A52000071
:103FD00070B56F4E2DED040B2DED048B82B0DDF826
:103FE00024C0DDE907235C422CF000411C4341EA78
:103FF000D474069D22F00040B44205D86C422C4394
:1040000040EAD474B4420BD99DED081B9DED060B1C
:1040100002B0BDEC048B04B0BDE8704001F012BCEE
:10402000ACF14054A4F17F641C430BD0022404EA99
:10403000AC7444EAD27405439FED578B9FED582B27
:1040400007D015E09DED060B51EC100B01F034FC90
:1040500042E0002C11BF012C9DED060B02B0BDEC1F
:10406000048B04BF04B070BD022C38D0032C3BD0AD
:104070000B439FED4D1B9FED4E0B0AD0B14218D163
:10408000B04209D121F0804120F080400991079091
:104090000FE0002A15DA10E0474B7B44002C08BFE4
:1040A00093ED000B0DD0012C10D0022C17D0032C57
:1040B0001AD0B0421DD1002A03DAB0EE410AF0EE68
:1040C000610A02B0BDEC048B04B070BD93ED000B2F
:1040D00051EC100B04F0F0F841EC100BF1E7B0EEEE
:1040E000480AF0EE680AECE7B0EE420AF0EE620A27
:1040F000E7E7401A00159FED329B3C28C8BF8DEDC5
:10410000000B17DCBCF1000FBCBF10F13C0F8DEDB4
:10411000009B0FDB9DED080B53EC102B9DED060B68
:1041200051EC100B04F0C2F901F033FD01F0C4FBB7
:10413000CDE90001B4B1012C10D0022C9FED220B6F
:1041400053EC102B9DED000B51EC100B19D004F02B
:10415000E3FD53EC182B04F0DFFDBDE7019880F080
:10416000004001909DED000B53EC192B51EC100B0E
:1041700004F0F4FA04BF0220FCF7FAF99DED000BFD
:104180009FE704F0C9FD53EC182B04F0EDFCA3E706
:104190000000F07F00000000182D4454FB2109406E
:1041A000182D4454FB2109C0182D4454FB21F9BF9C
:1041B000182D4454FB21F93FEA5100000000000093
:1041C0000000000000000000075C143326A6A13C9C
:1041D00010B52F499FED2C1B2DED020B84B00598D7
:1041E00020F000408842D8BF9DED040B2DDD294909
:1041F000884209D1049840B94FF00100FCF7B8F9A2
:1042000001F02AFB06B010BD05DB9DED040B01F0AB
:104210000FFB06B010BD68469DED040B00F008FFD3
:1042200010F0030004BF9DED021B9DED000B0CD0B0
:1042300001280ED09DED021B9DED000B022817D02A
:10424000012001F045FA06B010BD01F00DF906B0ED
:1042500010BD9DED021B9DED000B012001F038FA11
:1042600051EC100B04F028F806B041EC100B10BD17
:1042700001F0FAF851EC100B04F01EF806B041EC16
:10428000100B10BD00000000000000000000000046
:10429000FB21E93F0000F07F2DE9F04D2DED040BEF
:1042A0002DED0E8B96B0DDE92550279CDDF890A012
:1042B00025F0004624F00048BAF1000F14BF012198
:1042C000002101EB4502FC4953184A1093422AD3BE
:1042D000002814BF0123002303EB44030B44F749D8
:1042E0008B4220D358EA00019FEDF59B76D0DFF892
:1042F000D8B35D4503D1BAF1000F05D188E0BAF11A
:10430000000F08BF002100D0012101EB450111F58C
:10431000001F08D8002814BF0121002101EB44012F
:1043200011F5001F0BD99DED261B9DED240B16B03A
:10433000BDEC0E8B04B0BDE8F04D01F083BA002750
:10434000002DBCBFE149884521DAE1498845A8BF75
:1043500002271CDAC3451ADCDE4901EB2851142977
:1043600008DDC1F1340220FA02F101FA02F28242C0
:104370000DD108E058B9C1F1140228FA02F101FA8E
:1043800002F2424503D101F00101C1F1020756EAF0
:104390000A0124D1002C22DA002D18BF022F01D0EF
:1043A000012F0AD00220FCF7E3F816B0BDEC0E8B0B
:1043B00004B0BDE8F04D01F023BA0220FCF7D8F8B4
:1043C00001F01EFA51EC100B03F076FF41EC100BDC
:1043D00016B0BDEC0E8B04B0BDE8F08D18E09FED7B
:1043E000BEAB9FEDBF8B002871D1B848804522D16C
:1043F00005F1804010F5801008BFBAF1000F07D01A
:10440000B3450ADC002CA8BF9DED260BE0DA0DE0D9
:10441000B0EE490AF0EE690ADAE7002C06DA9DED03
:10442000260B51EC100B03F047FF6FE0AE487844C9
:1044300090ED000BCCE7D8454DD1002C48DA2EB1D9
:1044400086423AD1BAF1000F42D126E0BAF1000F0C
:1044500013D00220FCF78CF801F00EFA8DED020B60
:104460009DED240B8DED000B10EE900A039961F386
:104470001E0003909DED020BAAE78DED02AB9DEDB2
:10448000240B1AEE901A10EE900A8DED000B61F3DA
:104490001E0003909DED020B9AE78DED028B9DEDC2
:1044A000240B18EE901A10EE900A8DED000B61F3BC
:1044B0001E0003909DED020B8AE709DA9DED240BA7
:1044C00051EC190B53EC102B03F0F0FF1EE020E031
:1044D0009DED240B7CE786421BDAB4F1804F0DD0B2
:1044E000A4F10050B0F1FF5013D1002D11DB9DED70
:1044F000240B51EC100B03F071FE07E09DED240B33
:1045000053EC102B51EC100B00F0C2BC41EC100B23
:104510005EE79DED240B51EC100B01F03AFBBAF174
:10452000000FCDE90E0142D19FED710B46B3A6F10C
:10453000E040B0F17F600CD05E4538D1002D00DA4C
:10454000A7B3022F0CBF01204FF0FF3004F071F928
:10455000DCE7002D01DD002C0DDA002D01DD002C43
:104560001FDB002D16DA002C14DB012F08BF9FED96
:10457000620B3FF42DAFB0EE4A0AF0EE6A0A27E76D
:10458000022F18BF002D0CD0012F0AD1002DFFF6ED
:104590001FAF06E0002DB8BF002C08DA012F3FF452
:1045A00017AFB0EE480AF0EE680A11E71BE00120F1
:1045B00000EBE57050EA070115D0791EB0EE498A8C
:1045C000F0EE698A084308BF9FED4D8B4E480025E9
:1045D000804570DD4D494E48884514DDB0420DDB05
:1045E000002C19DB2FE00120FBF7C2FF16B0BDEC59
:1045F0000E8B04B0BDE8F04D01F02EB9B34502DCDE
:10460000002C09DC1FE0864202DA002C1BDA03E0F2
:104610005E452BDD002C16DD0220FBF7A9FF01F023
:104620002BF98DED020B53EC1A2B51EC180B04F007
:1046300067F9CDE900010399019861F31E00039029
:104640009DED020BC4E60220FBF792FF01F024F976
:1046500010EE901A18EE900A8DED020B8DED008B86
:1046600061F31E0003909DED020BB1E69DED0E0B74
:1046700053EC192B51EC100B04F04EFB9FED260B65
:10468000CDE9080153EC102B9DED080B51EC100BFC
:1046900004F036F99FED221B53EC112B04F064FA61
:1046A0009DED081B53EC112B04F02AF99FED1E1B06
:1046B00053EC112B3CE08CE0FFFF1F00FFFF0F00CD
:1046C000000000000000F03F0000F03F0000F07F1D
:1046D0000000404301FCFFFF000000000000F07FED
:1046E0000000000000000000564E00000000000026
:1046F0000000000000000080000000000000F0FF4B
:10470000000000000000F0BF0000E0410000F043A6
:10471000FFFFEF3F00000000000000000000D03F5E
:10472000555555555555D53F000000000000E03F58
:1047300004F01AFA9DED080B41EC1A0B53EC102B08
:1047400051EC100B04F0DCF853EC1A2B04F0D8F801
:1047500041EC1A0B9FEDFE0B53EC102B9DED080B5B
:1047600051EC100B04F0CCF841EC1B0B9FEDFA0B55
:1047700051EC1A0B53EC102B04F0C2F841EC1A0B5D
:104780009FEDF70B53EC102B9DED080B51EC100B2C
:1047900004F0B6F853EC1A2B04F0BEFA41EC1A0BF5
:1047A00051EC1B0B53EC1A2B03F0C4FD0690CDE922
:1047B00006519DED060B53EC1B2B51EC100B04F036
:1047C000ABFA53EC1A2B04F0CFF941EC100B00F0CC
:1047D000A1B90020B6F5801F0EDA9FEDE30B53EC74
:1047E000102B9DED0E0B51EC100B04F089F8CDE968
:1047F0000E016FF034000E4600EB2650A0F2FF379A
:10480000C6F31300DA4940F07F6646F0405688420E
:10481000D8BF002408DDD7498142C8BF012403DC8A
:104820000024A6F580167F1CD348784400EBC40012
:104830000F9690ED00CB9DED0E0B53EC1C2B51EC25
:10484000100B04F069FA9DED0E0B41EC1B0B53ECC1
:104850001C2B51EC100B03F06DFD41EC100B51ECD7
:10486000190B53EC102B03F021FE41EC1D0B51EC06
:104870001B0B53EC1D2B04F043F841EC1A0BBF4803
:104880008DED10AB7844109590ED000B4FF000507B
:1048900040EA660000EB84408DED080B00F5002037
:1048A00009909DED080B53EC1C2B51EC100B04F000
:1048B00033FA9DED0E1B53EC112B04F055F941EC2E
:1048C000100B53EC102B9DED100B51EC100B04F062
:1048D00017F89DED080B41EC1C0B53EC102B9DEDD4
:1048E000100B51EC100B04F00BF853EC1B2B04F0E5
:1048F0003BF953EC1C2B04F00FFA53EC1D2B03F087
:10490000FFFF41EC1C0B53EC1A2B51EC1A0B03F07C
:10491000F7FF41EC1B0B9A480621B0EE4B0AF0EE74
:104920006B0A784400F058FEB0EE401AF0EE601AC0
:10493000B0EE41DAF0EE61DA53EC1B2B51EC1B0BBD
:1049400003F0DEFF53EC1D2B03F0DAFF9DED100B9F
:1049500041EC1B0B53EC1A2B51EC100B03F0EAFC4F
:1049600053EC1C2B03F0CCFF53EC1B2B03F0E2FCAD
:104970009DED100B41EC1B0B53EC102B51EC100B6D
:1049800003F0BEFF41EC1D0B9FED7FEB53EC1E2BA4
:1049900003F0D0FC53EC1B2B03F0CCFC0890CDE9CA
:1049A00008519DED080B53EC1E2B51EC100B04F03D
:1049B000B3F953EC1D2B04F0AFF953EC1B2B04F0AF
:1049C000D3F89DED080B41EC1D0B53EC102B9DED26
:1049D000100B51EC100B03F093FF41EC1B0B53EC4D
:1049E0001A2B51EC1D0B03F08BFF9DED080B41ECD6
:1049F0001A0B53EC102B51EC1C0B03F081FF53EC02
:104A00001A2B03F097FC41EC1A0B51EC1B0B53ECE7
:104A10001A2B03F08FFC0C90CDE90C519DED0C0B83
:104A200053EC1B2B51EC100B04F076F953EC1A2BC2
:104A300004F09AF841EC1B0B9FED550B53EC102B37
:104A40009DED0C0B51EC100B03F05AFF41EC1A0BCF
:104A50009FED510B51EC1B0B53EC102B03F050FF4F
:104A600041EC1B0B9FED4E0B53EC102B9DED0C0BF3
:104A700051EC100B03F044FF53EC1B2B03F05AFCDA
:104A800041EC100B4848784400EBC40090ED001B4B
:104A900051EC100B53EC112B03F04CFC41EC1B0BB5
:104AA000384603F0C6FECDE9080153EC1B2B51EC50
:104AB0001A0B03F03FFC41EC100B3C48784400EB30
:104AC000C40090ED00CB51EC100B53EC1C2B03F009
:104AD00031FC9DED081B53EC112B03F02BFC0690D1
:104AE000CDE906519DED080B53EC102B9DED060B07
:104AF00051EC100B04F010F953EC1C2B04F00CF9E2
:104B000053EC1A2B04F008F953EC1B2B04F02CF88F
:104B100041EC100B9DED261B53EC102B8DED001B73
:104B200000959DED260B51EC100B03F0E9FE9DED79
:104B3000000B41EC1A0B53EC102B9DED260B51ECA6
:104B4000100B04F0E9F89DED061B53EC112B2FE040
:104B5000000000604715F73FFE822B654715F73FC1
:104B600044DF5DF80BAE543E0000000000004043FF
:104B70008E9803007AB60B000A490000004A000034
:104B80004248000000000000000000000000084053
:104B9000000000E009C7EE3FFD033ADC09C7EE3F25
:104BA000F5015B14E02F3EBECE46000088460000B3
:104BB00003F0A6FE53EC1A2B03F0BCFB9DED060B95
:104BC00041EC1A0B53EC102B9DED000B51EC100B2C
:104BD00003F096FECDE90C019DED0C0B51EC1A0B88
:104BE00053EC102B03F0A6FBCDE902010C46AA49B9
:104BF0008C422FDB611A084318D19DED0C0B53EC4E
:104C0000102B9DED020B51EC100B04F085F841ECDC
:104C10001B0B9FEDA30B51EC1A0B53EC102B03F065
:104C200089FB53EC1B2B03F069FF2DD20220FBF70D
:104C30009FFC00F021FE10EE901A18EE900A8DED08
:104C4000020B8DED008B61F31E0003909DED020BB6
:104C5000FFF7BEBB944A24F00041914214D393491C
:104C6000214408437FF4EFAC9DED0C0B53EC102B6B
:104C70009DED020B51EC100B04F04EF853EC1A2B87
:104C800003F03CFF7FF6DFAC24F000408849894AFE
:104C9000002601EB205182422BDA481C4FF4801190
:104CA00021FA00F02044844AC0F30A517A44A1F268
:104CB000FF3192ED000B814A8DED080BCA4020EACE
:104CC0000202C0F3130040F48010C1F1140120FA75
:104CD00001F60992002CB8BF76429DED080B53EC0B
:104CE000102B9DED0C0B51EC100B04F015F8CDE9D9
:104CF0000C019DED0C0B51EC1A0B53EC102B03F037
:104D000019FB9FED6F0B0890CDE9085153EC102B68
:104D10009DED080B51EC100B03F0F2FD41EC1B0B69
:104D20009FED690B53EC102B9DED080B51EC100B14
:104D300003F0E6FD9DED0C0B41EC1C0B53EC102B2E
:104D40009DED080B51EC100B03F0E6FF53EC1A2B12
:104D500003F00AFF9FED5E1B53EC112B03F0D0FD17
:104D600053EC1C2B03F0E6FA41EC1A0B51EC1B0B35
:104D700053EC1A2B03F0DEFACDE902019DED020B94
:104D800053EC1B2B51EC100B03F0C6FF53EC1A2B0A
:104D900003F0EAFE9DED020B41EC1A0B53EC102BD5
:104DA00051EC100B03F0ACFDCDE908014A489DED34
:104DB000080B0521784400F00FFC9DED081B51EC19
:104DC000100B53EC112B03F09BFD9DED021B53ECDC
:104DD000112B03F0C9FECDE906019DED020B53EC4A
:104DE0001A2B51EC100B03F08BFD53EC1A2B03F034
:104DF000A1FA9FED3B0B41EC1A0B53EC102B9DEDF0
:104E0000060B51EC100B03F087FF9DED060B41ECF8
:104E10001B0B53EC102B9DED020B51EC100B03F010
:104E20006FFD53EC1B2B03F041FB53EC1A2B03F0EB
:104E300073FF9DED021B53EC112B03F06DFF53EC40
:104E4000192B03F091FECDE9020101EB065001158B
:104E50000029C8BF039015DC9DED020B324651ECD2
:104E6000100B04F0F0F8FEF772FD042808BF00F004
:104E700013FD32469DED020B51EC100B04F0E3F8EC
:104E8000CDE902019DED020B51EC180B53EC102BF8
:104E900003F036FDFFF73ABB000090400000000031
:104EA000FE822B654715973C00CC904000346F3F45
:104EB00001FCFFFF0000E03FD8450000FFFF0F00AE
:104EC00000000000432EE63F396CA80C615C20BE58
:104ED000EF39FAFE422EE63FE043000000000000FA
:104EE000000000000000004010B52F499FED2C1B72
:104EF0002DED020B84B0059820F000408842DCBF05
:104F000000209DED040B32DD2849884209D1049828
:104F100040B94FF00100FBF72BFB00F09DFC06B001
:104F200010BD05DB9DED040B00F082FC06B010BD4A
:104F300068469DED040B00F07BF810F0030011D0E3
:104F4000012818D09DED021B9DED000B02281AD000
:104F500000F08AFA51EC100B03F0AEF906B041EC08
:104F6000100B10BD9DED021B9DED000B012000F00C
:104F7000AFFB06B010BD9DED021B9DED000B00F0D8
:104F800073FA06B010BD012000F0A2FB51EC100B2B
:104F900003F092F906B041EC100B10BD00000000C8
:104FA0000000000000000000FB21E93F0000F07F4E
:104FB00000B52DED048BB0EE409AF0EE609A83B010
:104FC00051EC190B03F0DCFD41EC180B18EE100A44
:104FD00018EE901A8DED008B002818BF01200843B1
:104FE00020F00040C0F17F6000F1E040C00F14D01D
:104FF00019EE101A19EE900A8DED009B002918BFCA
:105000000121084320F00040C0F17F6000F1E04042
:10501000C00F04BF0120FBF7ABFAB0EE480A03B0A3
:10502000F0EE680ABDEC048B00BD0000000000003B
:105030002DE9F14F04462DED020B2DED088B8AB0C2
:105040009FEDE70B80ED020B139EE74826F000452D
:1050500085420ADC9DED120B002084ED000B0AB0A6
:10506000BDEC088B03B0BDE8F08FE0489FEDE0ABEE
:105070009FEDE1BBA84247DDE14F9FEDE39B9FED34
:10508000E48B9DED120B53EC1A2B51EC100B002E00
:105090001CDD03F041FE41EC100BBD4208D053EC87
:1050A0001B2B51EC100B03F037FEC4E900010BE0A1
:1050B00053EC192B51EC100B03F02EFE53EC182B74
:1050C00003F02AFEC4E900010120C8E703F032F929
:1050D00041EC100BBD4208D053EC1B2B51EC100BD4
:1050E00003F028F9C4E900010BE053EC192B51EC53
:1050F000100B03F01FF953EC182B03F01BF9C4E954
:1051000000014FF0FF30AAE7C348A84279DB9DEDCC
:10511000120B51EC100B00F03CFD41EC180B9FED15
:10512000C00B53EC102B03F0EBFB9FEDBF1B53ECBC
:10513000112B03F0FFF803F04DFB074603F079FB5A
:1051400041EC190B53EC1A2B03F0DAFB53EC182B40
:1051500003F00AFD41EC180B53EC1B2B51EC190B1F
:1051600003F0CEFBDFF8C8A241EC100B4FEA155854
:105170000125FA4453EC102B51EC180B03F0CCFD35
:10518000032DC4E900013DD0C1F30A5005EB4511E0
:10519000A8EB00001139814234DA0AEB051BB0EEAE
:1051A00048AA9BED000BF0EE68AA53EC102B51ECD3
:1051B000190B03F0A5FB41EC1B0B51EC1A0B53EC44
:1051C0001B2B03F0A9FD41EC180B51EC1A0B53EC0F
:1051D000182B03F0A1FD53EC1B2B03F09DFD9BED61
:1051E000020B41EC1A0B53EC102B51EC190B03F092
:1051F00087FB53EC1A2B03F08FFD41EC100B6D1C59
:10520000B8E70EE0002EA8BF3846BFF628AF94EDF1
:10521000000B51EC100B03F04FF8C4E90001784289
:105220001DE7C6F3130040F4801EC6F30A50A0F237
:10523000F530471100F01F05C5F12000DDF848B03A
:1052400008900020069007900520EC467949002D33
:1052500007EB0002794408BF51F8221009D051F839
:10526000223001EB8201AB404A68089922FA01F131
:105270001943A1FB0E26A1FB0B131A449A4234BF1B
:105280000123002303EB06080CEB8003D3E901A6FE
:105290000E448E4234BF0121002192448A4411B150
:1052A000924502D903E0924501D2012100E000219C
:1052B000C3E901A641444CF82010011EA0F10100F1
:1052C000C4DC029800F10050850F0298DDE9036705
:1052D0008000DDF8148003F0ACFA41EC1A0B304684
:1052E00003F0BEFA9FED541B53EC112B03F008FBA7
:1052F00041EC1B0B384603F0B3FA9FED511B53EC06
:10530000112B03F0FDFA41EC180B404603F0A8FA0C
:105310009FED4D1B53EC112B03F0F2FA41EC190BEE
:1053200051EC180B53EC192B03F004F853EC1B2B26
:1053300003F000F853EC1A2B02F0FCFFCDE9080152
:10534000002008909DED080B53EC1A2B51EC100B2C
:1053500003F0E2FC53EC1B2B03F0DEFC53EC182BA8
:1053600003F0DAFC53EC192B03F0FEFB9FED381B26
:1053700053EC112B03F0C4FA9FED370B41EC180BE3
:1053800053EC102B9DED080B51EC100B03F0B8FA09
:1053900053EC182B02F0CEFF9FED310B41EC180BB4
:1053A00053EC102B9DED080B51EC100B03F0A8FAF9
:1053B00053EC182B02F0BEFF41EC100B139810F0C9
:1053C000004F06D06D4251EC100B02F075FF41EC1E
:1053D000100B284684ED000B41E6000000000000A1
:1053E0000000000000000000FB21E93F7CD90240E2
:1053F00000004054FB21F93F3163621A61B4D03D93
:10540000FB21F93F000000000000601A61B4D03DAC
:105410007370032E8A19A33BFB2139410000000061
:1054200083C8C96D305FE43F000000000000E03F2A
:105430001A41000068400000000000000000103E1B
:10544000000000000000103C000000000000103AC6
:10545000182D4454FB21F93D3326A611460B113C6F
:1054600000000054FB21F93D10B52DED040B2DED8E
:10547000088B82B0B0EE419AF0EE619A0B9820F062
:1054800000449FED4BABB4F1795F11DA9DED0A0B4F
:1054900051EC100B03F09EF9002801BFB0EE4A0A50
:1054A000F0EE6A0A02B0BDEC088B04BF04B010BD78
:1054B0009DED0A0B53EC102B51EC100B03F020FA6E
:1054C00041EC180B3C480621B0EE480AF0EE680AA1
:1054D000784400F081F853EC182B51EC100B03F0DA
:1054E0000FFA9DED0A0B41EC1B0B53EC192B51EC01
:1054F000100B03F005FA41EC190B53EC1B2B51EC8C
:10550000180B03F0FDF953EC192B03F005FC9FED8C
:105510002C0B41EC190B53EC102B51EC180B03F036
:10552000EFF941EC100B2848844210DA53EC192BA8
:1055300051EC100B03F0F0FB53EC1A2B03F014FBAF
:1055400041EC100B02B0BDEC088B04B010BD1F483D
:10555000A042BCBF9FED1E1B8DED001B06DBA4F51A
:1055600000100190002000909DED001B51EC100BED
:1055700053EC112B03F0D0FB9DED000B41EC180B0D
:1055800053EC102B51EC1A0B03F0C6FB41EC1A0B39
:1055900053EC192B51EC180B03F0BEFB53EC1A2BF8
:1055A00003F0E2FA41EC100BCCE700000000000031
:1055B000000000000000F03F843D000000000000FB
:1055C000000000000000E03F3333D33F0000E93F1C
:1055D000000000000000D23F70B504462DED028BA4
:1055E0004D1E00EBC500B0EE408AF0EE608A90EDF3
:1055F000000B35F0060017D053EC182B51EC100BB4
:1056000003F07EF941EC100B6D1E04EBC50090ED2C
:10561000001B51EC100B53EC112B02F08BFE41ECF4
:10562000100B35F00600E7D1022D36D0042D1CD02A
:10563000062D1CBFBDEC028B70BD53EC182B51EC3A
:10564000100B03F05DF994ED0A1B53EC112B02F0E3
:1056500071FE53EC182B03F053F994ED081B53EC37
:10566000112B02F067FE41EC100B53EC182B51ECA0
:10567000100B03F045F994ED061B53EC112B02F0CF
:1056800059FE53EC182B03F03BF994ED040B53EC4B
:10569000102B02F04FFE41EC100B53EC182B51EC89
:1056A000100B03F02DF994ED021B53EC112B02F0BB
:1056B00041FE53EC182B03F023F994ED001B53EC3F
:1056C000112B02F037FEBDEC028B41EC100B70BDCC
:1056D00031B504462DED040B2DED0A8BB0EE41BA29
:1056E000F0EE61BA0B989DED0A0B20F00040B0F18E
:1056F000795F0DDA51EC100BFEF729F9042808BF89
:1057000000F0CAF89DED0A0BBDEC0A8B05B030BD68
:1057100053EC102B51EC100B03F0F2F841EC180B8A
:105720009DED0A0B53EC182B51EC100B03F0E8F82D
:1057300041EC190B2C48B0EE480AF0EE680A05213E
:105740007844FFF749FF9FED2ACBB0EE40AAF0EE78
:1057500060AA9CB353EC1C2B51EC190B03F0D0F84E
:1057600041EC1C0B53EC1A2B51EC190B03F0C8F84D
:105770009FED210B41EC190B53EC102B51EC1B0B43
:1057800003F0BEF853EC192B03F0C6FA53EC182BB8
:1057900003F0B6F853EC1B2B03F0BEFA53EC1C2BB2
:1057A00003F0BAFA9DED0A1B53EC112B03F0DCF960
:1057B000BDEC0A8B05B041EC100B30BDFFE753EC9C
:1057C0001A2B51EC180B03F09BF853EC1C2B02F036
:1057D000B1FD53EC192B03F093F89DED0A1B53EC2C
:1057E000112B02F0A7FDE3E7143C000000000000CD
:1057F000495555555555C5BF000000000000E03F14
:105800009FED070B10B553EC102B9FED070B51ECE0
:10581000100B02F04BFE41EC100B10BD000000001D
:105820000000000000000000000000000000F03F49
:1058300010B553EC102B51EC100B02F07BFD41EC3A
:10584000100B10BD10B553EC112B51EC100B02F0E6
:1058500071FD41EC100B10BD9FED050B10B553EC25
:10586000102B51EC100B02F021FE41EC100B10BD7F
:1058700000000000000000009FED050B10B553EC88
:10588000102B51EC100B03F03BF841EC100B10BD4A
:1058900000000000000000709FED050B10B553ECF8
:1058A000102B51EC100B03F02BF841EC100B10BD3A
:1058B000000000000000001010B541EC100BFEF7D6
:1058C0001BFA51EC100B10BD2DE9F04100F52B72C5
:1058D000044600F1EC012DED048B1546AC3001F0CF
:1058E000FDFA04F53B72164604F59671284601F060
:1058F000F5FA04F54B72154604F5B671304601F021
:10590000EDFA04F55B72164604F5D671284601F0EF
:10591000E5FA04F56B72174604F5F671304601F0AE
:10592000DDFA04F57B72154604F50B71384601F07B
:10593000D5FA04F22C4204F51B71284601F0CEFA88
:1059400004F22C4494ED030A84ED100A94ED070A46
:1059500084ED110A94ED0B0A84ED120A206903F01C
:10596000C5FA41EC100B9FED649BB0EE491AF0EEC6
:10597000691AFEF791FCB0EE408AF0EE608A20686A
:1059800003F0B4FA41EC100BB0EE491AF0EE691ACC
:10599000FEF782FCB0EE401AF0EE601A53EC182BC2
:1059A00051EC110B02F0C6FC41EC100BFFF700FBB1
:1059B000B0EE408A94ED080AF0EE608AB1EE400A3B
:1059C00010EE100A03F092FA41EC100BB0EE481AF8
:1059D000F0EE681AFEF7FCFA51EC100B02F078FCBE
:1059E000206503F083FA41EC100BFEF7F1FBB0EEFB
:1059F000408AF0EE608AA06A03F078FA53EC182B24
:105A000002F054FD41EC180B206D03F06FFA41ECED
:105A1000100BFEF7DDFBB0EE409AF0EE609A606A84
:105A200003F064FA53EC192B02F040FD41EC100B2B
:105A3000B0EE481AF0EE681AFEF7CAFA51EC100BF5
:105A400002F046FCE064206D03F050FA41EC100BCC
:105A5000FEF7BEFBB0EE408AF0EE608A206803F0ED
:105A600045FA53EC182B02F021FD41EC180B206D88
:105A700003F03CFA41EC100BFEF7AAFBB0EE409AA3
:105A8000F0EE609A206903F031FA53EC192B02F022
:105A90000DFD41EC100BB0EE481AF0EE681AFEF75F
:105AA00097FA51EC100B02F013FC05466065E06CB0
:105AB00003F01CFA9FED128B53EC182B02F0F6FC4E
:105AC00002F006FCA065206D03F010FA53EC182BD1
:105AD00002F0ECFC02F0FCFBE065284603F006FA5D
